{
  "contractName": "Coin",
  "abi": [
    {
      "inputs": [],
      "stateMutability": "nonpayable",
      "type": "constructor"
    },
    {
      "anonymous": false,
      "inputs": [
        {
          "indexed": true,
          "internalType": "address",
          "name": "owner",
          "type": "address"
        },
        {
          "indexed": true,
          "internalType": "address",
          "name": "spender",
          "type": "address"
        },
        {
          "indexed": false,
          "internalType": "uint256",
          "name": "value",
          "type": "uint256"
        }
      ],
      "name": "Approval",
      "type": "event"
    },
    {
      "anonymous": false,
      "inputs": [
        {
          "indexed": true,
          "internalType": "address",
          "name": "burner",
          "type": "address"
        },
        {
          "indexed": true,
          "internalType": "address",
          "name": "account",
          "type": "address"
        },
        {
          "indexed": false,
          "internalType": "uint256",
          "name": "amount",
          "type": "uint256"
        }
      ],
      "name": "Burn",
      "type": "event"
    },
    {
      "anonymous": false,
      "inputs": [
        {
          "indexed": true,
          "internalType": "address",
          "name": "minter",
          "type": "address"
        },
        {
          "indexed": true,
          "internalType": "address",
          "name": "account",
          "type": "address"
        },
        {
          "indexed": false,
          "internalType": "uint256",
          "name": "amount",
          "type": "uint256"
        }
      ],
      "name": "Mint",
      "type": "event"
    },
    {
      "anonymous": false,
      "inputs": [
        {
          "indexed": true,
          "internalType": "address",
          "name": "from",
          "type": "address"
        },
        {
          "indexed": true,
          "internalType": "address",
          "name": "to",
          "type": "address"
        },
        {
          "indexed": false,
          "internalType": "uint256",
          "name": "value",
          "type": "uint256"
        }
      ],
      "name": "Transfer",
      "type": "event"
    },
    {
      "inputs": [],
      "name": "isOwner",
      "outputs": [
        {
          "internalType": "bool",
          "name": "",
          "type": "bool"
        }
      ],
      "stateMutability": "view",
      "type": "function"
    },
    {
      "inputs": [],
      "name": "owner",
      "outputs": [
        {
          "internalType": "address",
          "name": "",
          "type": "address"
        }
      ],
      "stateMutability": "view",
      "type": "function"
    },
    {
      "inputs": [],
      "name": "name",
      "outputs": [
        {
          "internalType": "string",
          "name": "",
          "type": "string"
        }
      ],
      "stateMutability": "view",
      "type": "function"
    },
    {
      "inputs": [],
      "name": "symbol",
      "outputs": [
        {
          "internalType": "string",
          "name": "",
          "type": "string"
        }
      ],
      "stateMutability": "view",
      "type": "function"
    },
    {
      "inputs": [],
      "name": "decimals",
      "outputs": [
        {
          "internalType": "uint8",
          "name": "",
          "type": "uint8"
        }
      ],
      "stateMutability": "view",
      "type": "function"
    },
    {
      "inputs": [],
      "name": "totalSupply",
      "outputs": [
        {
          "internalType": "uint256",
          "name": "",
          "type": "uint256"
        }
      ],
      "stateMutability": "view",
      "type": "function"
    },
    {
      "inputs": [
        {
          "internalType": "address",
          "name": "_to",
          "type": "address"
        },
        {
          "internalType": "uint256",
          "name": "_value",
          "type": "uint256"
        }
      ],
      "name": "transfer",
      "outputs": [
        {
          "internalType": "bool",
          "name": "",
          "type": "bool"
        }
      ],
      "stateMutability": "nonpayable",
      "type": "function"
    },
    {
      "inputs": [
        {
          "internalType": "address",
          "name": "_owner",
          "type": "address"
        }
      ],
      "name": "balanceOf",
      "outputs": [
        {
          "internalType": "uint256",
          "name": "balance",
          "type": "uint256"
        }
      ],
      "stateMutability": "view",
      "type": "function"
    },
    {
      "inputs": [
        {
          "internalType": "address",
          "name": "_spender",
          "type": "address"
        },
        {
          "internalType": "uint256",
          "name": "_value",
          "type": "uint256"
        }
      ],
      "name": "approve",
      "outputs": [
        {
          "internalType": "bool",
          "name": "",
          "type": "bool"
        }
      ],
      "stateMutability": "nonpayable",
      "type": "function"
    },
    {
      "inputs": [
        {
          "internalType": "address",
          "name": "_from",
          "type": "address"
        },
        {
          "internalType": "address",
          "name": "_to",
          "type": "address"
        },
        {
          "internalType": "uint256",
          "name": "_value",
          "type": "uint256"
        }
      ],
      "name": "transferFrom",
      "outputs": [
        {
          "internalType": "bool",
          "name": "",
          "type": "bool"
        }
      ],
      "stateMutability": "nonpayable",
      "type": "function"
    },
    {
      "inputs": [
        {
          "internalType": "address",
          "name": "_owner",
          "type": "address"
        },
        {
          "internalType": "address",
          "name": "_spender",
          "type": "address"
        }
      ],
      "name": "allowance",
      "outputs": [
        {
          "internalType": "uint256",
          "name": "",
          "type": "uint256"
        }
      ],
      "stateMutability": "view",
      "type": "function"
    },
    {
      "inputs": [
        {
          "internalType": "address",
          "name": "_spender",
          "type": "address"
        },
        {
          "internalType": "uint256",
          "name": "_addedValue",
          "type": "uint256"
        }
      ],
      "name": "increaseApproval",
      "outputs": [
        {
          "internalType": "bool",
          "name": "",
          "type": "bool"
        }
      ],
      "stateMutability": "nonpayable",
      "type": "function"
    },
    {
      "inputs": [
        {
          "internalType": "address",
          "name": "_spender",
          "type": "address"
        },
        {
          "internalType": "uint256",
          "name": "_subtractedValue",
          "type": "uint256"
        }
      ],
      "name": "decreaseApproval",
      "outputs": [
        {
          "internalType": "bool",
          "name": "",
          "type": "bool"
        }
      ],
      "stateMutability": "nonpayable",
      "type": "function"
    },
    {
      "inputs": [
        {
          "internalType": "address",
          "name": "_to",
          "type": "address"
        },
        {
          "internalType": "uint256",
          "name": "_amount",
          "type": "uint256"
        }
      ],
      "name": "mintTo",
      "outputs": [],
      "stateMutability": "nonpayable",
      "type": "function"
    },
    {
      "inputs": [
        {
          "internalType": "address",
          "name": "_from",
          "type": "address"
        },
        {
          "internalType": "uint256",
          "name": "_amount",
          "type": "uint256"
        }
      ],
      "name": "burnFrom",
      "outputs": [],
      "stateMutability": "nonpayable",
      "type": "function"
    }
  ],
  "bytecode": "0x60806040523480156200001157600080fd5b50336000806101000a81548173ffffffffffffffffffffffffffffffffffffffff021916908373ffffffffffffffffffffffffffffffffffffffff1602179055506040518060400160405280600481526020017f436f696e00000000000000000000000000000000000000000000000000000000815250600190805190602001906200009f92919062000119565b506040518060400160405280600481526020017f434f494e0000000000000000000000000000000000000000000000000000000081525060029080519060200190620000ed92919062000119565b50610bb8600481905550600c600360006101000a81548160ff021916908360ff1602179055506200022e565b8280546200012790620001f8565b90600052602060002090601f0160209004810192826200014b576000855562000197565b82601f106200016657805160ff191683800117855562000197565b8280016001018555821562000197579182015b828111156200019657825182559160200191906001019062000179565b5b509050620001a69190620001aa565b5090565b5b80821115620001c5576000816000905550600101620001ab565b5090565b7f4e487b7100000000000000000000000000000000000000000000000000000000600052602260045260246000fd5b600060028204905060018216806200021157607f821691505b60208210811415620002285762000227620001c9565b5b50919050565b6120a4806200023e6000396000f3fe608060405234801561001057600080fd5b50600436106100f55760003560e01c806370a082311161009757806395d89b411161006657806395d89b4114610288578063a9059cbb146102a6578063d73dd623146102d6578063dd62ed3e14610306576100f5565b806370a082311461020057806379cc6790146102305780638da5cb5b1461024c5780638f32d59b1461026a576100f5565b806323b872dd116100d357806323b872dd14610166578063313ce56714610196578063449a52f8146101b457806366188463146101d0576100f5565b806306fdde03146100fa578063095ea7b31461011857806318160ddd14610148575b600080fd5b610102610336565b60405161010f91906117b3565b60405180910390f35b610132600480360381019061012d919061186e565b6103c8565b60405161013f91906118c9565b60405180910390f35b6101506104ba565b60405161015d91906118f3565b60405180910390f35b610180600480360381019061017b919061190e565b6104c4565b60405161018d91906118c9565b60405180910390f35b61019e610974565b6040516101ab919061197d565b60405180910390f35b6101ce60048036038101906101c9919061186e565b61098b565b005b6101ea60048036038101906101e5919061186e565b610b9e565b6040516101f791906118c9565b60405180910390f35b61021a60048036038101906102159190611998565b610e26565b60405161022791906118f3565b60405180910390f35b61024a6004803603810190610245919061186e565b610e6f565b005b6102546110c1565b60405161026191906119d4565b60405180910390f35b6102726110ea565b60405161027f91906118c9565b60405180910390f35b610290611141565b60405161029d91906117b3565b60405180910390f35b6102c060048036038101906102bb919061186e565b6111d3565b6040516102cd91906118c9565b60405180910390f35b6102f060048036038101906102eb919061186e565b61144d565b6040516102fd91906118c9565b60405180910390f35b610320600480360381019061031b91906119ef565b611640565b60405161032d91906118f3565b60405180910390f35b60606001805461034590611a5e565b80601f016020809104026020016040519081016040528092919081815260200182805461037190611a5e565b80156103be5780601f10610393576101008083540402835291602001916103be565b820191906000526020600020905b8154815290600101906020018083116103a157829003601f168201915b5050505050905090565b600081600660003373ffffffffffffffffffffffffffffffffffffffff1673ffffffffffffffffffffffffffffffffffffffff16815260200190815260200160002060008573ffffffffffffffffffffffffffffffffffffffff1673ffffffffffffffffffffffffffffffffffffffff168152602001908152602001600020819055508273ffffffffffffffffffffffffffffffffffffffff163373ffffffffffffffffffffffffffffffffffffffff167f8c5be1e5ebec7d5bd14f71427d1e84f3dd0314c0f7b2291e5b200ac8c7c3b925846040516104a891906118f3565b60405180910390a36001905092915050565b6000600454905090565b60008073ffffffffffffffffffffffffffffffffffffffff168473ffffffffffffffffffffffffffffffffffffffff161415610535576040517f08c379a000000000000000000000000000000000000000000000000000000000815260040161052c90611b02565b60405180910390fd5b600073ffffffffffffffffffffffffffffffffffffffff168373ffffffffffffffffffffffffffffffffffffffff1614156105a5576040517f08c379a000000000000000000000000000000000000000000000000000000000815260040161059c90611b94565b60405180910390fd5b600560008573ffffffffffffffffffffffffffffffffffffffff1673ffffffffffffffffffffffffffffffffffffffff16815260200190815260200160002054821115610627576040517f08c379a000000000000000000000000000000000000000000000000000000000815260040161061e90611c26565b60405180910390fd5b600660008573ffffffffffffffffffffffffffffffffffffffff1673ffffffffffffffffffffffffffffffffffffffff16815260200190815260200160002060003373ffffffffffffffffffffffffffffffffffffffff1673ffffffffffffffffffffffffffffffffffffffff168152602001908152602001600020548211156106e6576040517f08c379a00000000000000000000000000000000000000000000000000000000081526004016106dd90611cb8565b60405180910390fd5b61072f600560008673ffffffffffffffffffffffffffffffffffffffff1673ffffffffffffffffffffffffffffffffffffffff16815260200190815260200160002054836116c7565b600560008673ffffffffffffffffffffffffffffffffffffffff1673ffffffffffffffffffffffffffffffffffffffff168152602001908152602001600020819055506107bb600560008573ffffffffffffffffffffffffffffffffffffffff1673ffffffffffffffffffffffffffffffffffffffff16815260200190815260200160002054836116ee565b600560008573ffffffffffffffffffffffffffffffffffffffff1673ffffffffffffffffffffffffffffffffffffffff16815260200190815260200160002081905550610884600660008673ffffffffffffffffffffffffffffffffffffffff1673ffffffffffffffffffffffffffffffffffffffff16815260200190815260200160002060003373ffffffffffffffffffffffffffffffffffffffff1673ffffffffffffffffffffffffffffffffffffffff16815260200190815260200160002054836116c7565b600660008673ffffffffffffffffffffffffffffffffffffffff1673ffffffffffffffffffffffffffffffffffffffff16815260200190815260200160002060003373ffffffffffffffffffffffffffffffffffffffff1673ffffffffffffffffffffffffffffffffffffffff168152602001908152602001600020819055508273ffffffffffffffffffffffffffffffffffffffff168473ffffffffffffffffffffffffffffffffffffffff167fddf252ad1be2c89b69c2b068fc378daa952ba7f163c4a11628f55a4df523b3ef8460405161096191906118f3565b60405180910390a3600190509392505050565b6000600360009054906101000a900460ff16905090565b6109936110ea565b6109d2576040517f08c379a00000000000000000000000000000000000000000000000000000000081526004016109c990611d24565b60405180910390fd5b600073ffffffffffffffffffffffffffffffffffffffff168273ffffffffffffffffffffffffffffffffffffffff161415610a42576040517f08c379a0000000000000000000000000000000000000000000000000000000008152600401610a3990611d90565b60405180910390fd5b60008111610a85576040517f08c379a0000000000000000000000000000000000000000000000000000000008152600401610a7c90611dfc565b60405180910390fd5b610a9a816004546116ee90919063ffffffff16565b600481905550610af281600560008573ffffffffffffffffffffffffffffffffffffffff1673ffffffffffffffffffffffffffffffffffffffff168152602001908152602001600020546116ee90919063ffffffff16565b600560008473ffffffffffffffffffffffffffffffffffffffff1673ffffffffffffffffffffffffffffffffffffffff168152602001908152602001600020819055508173ffffffffffffffffffffffffffffffffffffffff163373ffffffffffffffffffffffffffffffffffffffff167fab8530f87dc9b59234c4623bf917212bb2536d647574c8e7e5da92c2ede0c9f883604051610b9291906118f3565b60405180910390a35050565b600080600660003373ffffffffffffffffffffffffffffffffffffffff1673ffffffffffffffffffffffffffffffffffffffff16815260200190815260200160002060008573ffffffffffffffffffffffffffffffffffffffff1673ffffffffffffffffffffffffffffffffffffffff16815260200190815260200160002054905080831115610caf576000600660003373ffffffffffffffffffffffffffffffffffffffff1673ffffffffffffffffffffffffffffffffffffffff16815260200190815260200160002060008673ffffffffffffffffffffffffffffffffffffffff1673ffffffffffffffffffffffffffffffffffffffff16815260200190815260200160002081905550610d3a565b610cb981846116c7565b600660003373ffffffffffffffffffffffffffffffffffffffff1673ffffffffffffffffffffffffffffffffffffffff16815260200190815260200160002060008673ffffffffffffffffffffffffffffffffffffffff1673ffffffffffffffffffffffffffffffffffffffff168152602001908152602001600020819055505b8373ffffffffffffffffffffffffffffffffffffffff163373ffffffffffffffffffffffffffffffffffffffff167f8c5be1e5ebec7d5bd14f71427d1e84f3dd0314c0f7b2291e5b200ac8c7c3b925600660003373ffffffffffffffffffffffffffffffffffffffff1673ffffffffffffffffffffffffffffffffffffffff16815260200190815260200160002060008873ffffffffffffffffffffffffffffffffffffffff1673ffffffffffffffffffffffffffffffffffffffff16815260200190815260200160002054604051610e1391906118f3565b60405180910390a3600191505092915050565b6000600560008373ffffffffffffffffffffffffffffffffffffffff1673ffffffffffffffffffffffffffffffffffffffff168152602001908152602001600020549050919050565b610e776110ea565b610eb6576040517f08c379a0000000000000000000000000000000000000000000000000000000008152600401610ead90611d24565b60405180910390fd5b600073ffffffffffffffffffffffffffffffffffffffff168273ffffffffffffffffffffffffffffffffffffffff161415610f26576040517f08c379a0000000000000000000000000000000000000000000000000000000008152600401610f1d90611e68565b60405180910390fd5b80600560008473ffffffffffffffffffffffffffffffffffffffff1673ffffffffffffffffffffffffffffffffffffffff168152602001908152602001600020541015610fa8576040517f08c379a0000000000000000000000000000000000000000000000000000000008152600401610f9f90611ed4565b60405180910390fd5b610ffa81600560008573ffffffffffffffffffffffffffffffffffffffff1673ffffffffffffffffffffffffffffffffffffffff168152602001908152602001600020546116c790919063ffffffff16565b600560008473ffffffffffffffffffffffffffffffffffffffff1673ffffffffffffffffffffffffffffffffffffffff16815260200190815260200160002081905550611052816004546116c790919063ffffffff16565b6004819055508173ffffffffffffffffffffffffffffffffffffffff163373ffffffffffffffffffffffffffffffffffffffff167fbac40739b0d4ca32fa2d82fc91630465ba3eddd1598da6fca393b26fb63b9453836040516110b591906118f3565b60405180910390a35050565b60008060009054906101000a900473ffffffffffffffffffffffffffffffffffffffff16905090565b60008060009054906101000a900473ffffffffffffffffffffffffffffffffffffffff1673ffffffffffffffffffffffffffffffffffffffff163373ffffffffffffffffffffffffffffffffffffffff1614905090565b60606002805461115090611a5e565b80601f016020809104026020016040519081016040528092919081815260200182805461117c90611a5e565b80156111c95780601f1061119e576101008083540402835291602001916111c9565b820191906000526020600020905b8154815290600101906020018083116111ac57829003601f168201915b5050505050905090565b60008073ffffffffffffffffffffffffffffffffffffffff168373ffffffffffffffffffffffffffffffffffffffff161415611244576040517f08c379a000000000000000000000000000000000000000000000000000000000815260040161123b90611f66565b60405180910390fd5b600560003373ffffffffffffffffffffffffffffffffffffffff1673ffffffffffffffffffffffffffffffffffffffff168152602001908152602001600020548211156112c6576040517f08c379a00000000000000000000000000000000000000000000000000000000081526004016112bd90611c26565b60405180910390fd5b61130f600560003373ffffffffffffffffffffffffffffffffffffffff1673ffffffffffffffffffffffffffffffffffffffff16815260200190815260200160002054836116c7565b600560003373ffffffffffffffffffffffffffffffffffffffff1673ffffffffffffffffffffffffffffffffffffffff1681526020019081526020016000208190555061139b600560008573ffffffffffffffffffffffffffffffffffffffff1673ffffffffffffffffffffffffffffffffffffffff16815260200190815260200160002054836116ee565b600560008573ffffffffffffffffffffffffffffffffffffffff1673ffffffffffffffffffffffffffffffffffffffff168152602001908152602001600020819055508273ffffffffffffffffffffffffffffffffffffffff163373ffffffffffffffffffffffffffffffffffffffff167fddf252ad1be2c89b69c2b068fc378daa952ba7f163c4a11628f55a4df523b3ef8460405161143b91906118f3565b60405180910390a36001905092915050565b60006114d5600660003373ffffffffffffffffffffffffffffffffffffffff1673ffffffffffffffffffffffffffffffffffffffff16815260200190815260200160002060008573ffffffffffffffffffffffffffffffffffffffff1673ffffffffffffffffffffffffffffffffffffffff16815260200190815260200160002054836116ee565b600660003373ffffffffffffffffffffffffffffffffffffffff1673ffffffffffffffffffffffffffffffffffffffff16815260200190815260200160002060008573ffffffffffffffffffffffffffffffffffffffff1673ffffffffffffffffffffffffffffffffffffffff168152602001908152602001600020819055508273ffffffffffffffffffffffffffffffffffffffff163373ffffffffffffffffffffffffffffffffffffffff167f8c5be1e5ebec7d5bd14f71427d1e84f3dd0314c0f7b2291e5b200ac8c7c3b925600660003373ffffffffffffffffffffffffffffffffffffffff1673ffffffffffffffffffffffffffffffffffffffff16815260200190815260200160002060008773ffffffffffffffffffffffffffffffffffffffff1673ffffffffffffffffffffffffffffffffffffffff1681526020019081526020016000205460405161162e91906118f3565b60405180910390a36001905092915050565b6000600660008473ffffffffffffffffffffffffffffffffffffffff1673ffffffffffffffffffffffffffffffffffffffff16815260200190815260200160002060008373ffffffffffffffffffffffffffffffffffffffff1673ffffffffffffffffffffffffffffffffffffffff16815260200190815260200160002054905092915050565b6000828211156116da576116d9611f86565b5b81836116e69190611fe4565b905092915050565b60008082846116fd9190612018565b9050838110156117105761170f611f86565b5b8091505092915050565b600081519050919050565b600082825260208201905092915050565b60005b83811015611754578082015181840152602081019050611739565b83811115611763576000848401525b50505050565b6000601f19601f8301169050919050565b60006117858261171a565b61178f8185611725565b935061179f818560208601611736565b6117a881611769565b840191505092915050565b600060208201905081810360008301526117cd818461177a565b905092915050565b600080fd5b600073ffffffffffffffffffffffffffffffffffffffff82169050919050565b6000611805826117da565b9050919050565b611815816117fa565b811461182057600080fd5b50565b6000813590506118328161180c565b92915050565b6000819050919050565b61184b81611838565b811461185657600080fd5b50565b60008135905061186881611842565b92915050565b60008060408385031215611885576118846117d5565b5b600061189385828601611823565b92505060206118a485828601611859565b9150509250929050565b60008115159050919050565b6118c3816118ae565b82525050565b60006020820190506118de60008301846118ba565b92915050565b6118ed81611838565b82525050565b600060208201905061190860008301846118e4565b92915050565b600080600060608486031215611927576119266117d5565b5b600061193586828701611823565b935050602061194686828701611823565b925050604061195786828701611859565b9150509250925092565b600060ff82169050919050565b61197781611961565b82525050565b6000602082019050611992600083018461196e565b92915050565b6000602082840312156119ae576119ad6117d5565b5b60006119bc84828501611823565b91505092915050565b6119ce816117fa565b82525050565b60006020820190506119e960008301846119c5565b92915050565b60008060408385031215611a0657611a056117d5565b5b6000611a1485828601611823565b9250506020611a2585828601611823565b9150509250929050565b7f4e487b7100000000000000000000000000000000000000000000000000000000600052602260045260246000fd5b60006002820490506001821680611a7657607f821691505b60208210811415611a8a57611a89611a2f565b5b50919050565b7f4552433230204572726f723a202766726f6d272061646472657373206973206e60008201527f6f742076616c6964000000000000000000000000000000000000000000000000602082015250565b6000611aec602883611725565b9150611af782611a90565b604082019050919050565b60006020820190508181036000830152611b1b81611adf565b9050919050565b7f4552433230204572726f723a2027746f272061646472657373206973206e6f7460008201527f2076616c69640000000000000000000000000000000000000000000000000000602082015250565b6000611b7e602683611725565b9150611b8982611b22565b604082019050919050565b60006020820190508181036000830152611bad81611b71565b9050919050565b7f5472616e73616374696f6e204572726f723a20696e73756666696369656e742060008201527f62616c616e636500000000000000000000000000000000000000000000000000602082015250565b6000611c10602783611725565b9150611c1b82611bb4565b604082019050919050565b60006020820190508181036000830152611c3f81611c03565b9050919050565b7f5472616e73616374696f6e204572726f722c202766726f6d27206e6f7420616c60008201527f6c6f776564000000000000000000000000000000000000000000000000000000602082015250565b6000611ca2602583611725565b9150611cad82611c46565b604082019050919050565b60006020820190508181036000830152611cd181611c95565b9050919050565b7f4f776e61626c653a2063616c6c6572206973206e6f7420746865206f776e6572600082015250565b6000611d0e602083611725565b9150611d1982611cd8565b602082019050919050565b60006020820190508181036000830152611d3d81611d01565b9050919050565b7f45524332303a20746f2061646472657373206973206e6f742076616c69640000600082015250565b6000611d7a601e83611725565b9150611d8582611d44565b602082019050919050565b60006020820190508181036000830152611da981611d6d565b9050919050565b7f45524332303a20616d6f756e74206973206e6f742076616c6964000000000000600082015250565b6000611de6601a83611725565b9150611df182611db0565b602082019050919050565b60006020820190508181036000830152611e1581611dd9565b9050919050565b7f45524332303a2066726f6d2061646472657373206973206e6f742076616c6964600082015250565b6000611e52602083611725565b9150611e5d82611e1c565b602082019050919050565b60006020820190508181036000830152611e8181611e45565b9050919050565b7f45524332303a20696e73756666696369656e742062616c616e63650000000000600082015250565b6000611ebe601b83611725565b9150611ec982611e88565b602082019050919050565b60006020820190508181036000830152611eed81611eb1565b9050919050565b7f4552433230204572726f723a2041646472657373206973206e6f742076616c6960008201527f6400000000000000000000000000000000000000000000000000000000000000602082015250565b6000611f50602183611725565b9150611f5b82611ef4565b604082019050919050565b60006020820190508181036000830152611f7f81611f43565b9050919050565b7f4e487b7100000000000000000000000000000000000000000000000000000000600052600160045260246000fd5b7f4e487b7100000000000000000000000000000000000000000000000000000000600052601160045260246000fd5b6000611fef82611838565b9150611ffa83611838565b92508282101561200d5761200c611fb5565b5b828203905092915050565b600061202382611838565b915061202e83611838565b9250827fffffffffffffffffffffffffffffffffffffffffffffffffffffffffffffffff0382111561206357612062611fb5565b5b82820190509291505056fea264697066735822122057227e0cafbb650178c79d196d036c320b7de921246a9f5e12541b5cec8d47db64736f6c634300080b0033",
  "immutableReferences": {},
  "source": "// SPDX-License-Identifier: UNLICENSED\r\npragma solidity ^0.8.9;\r\n\r\nimport \"./IERC20.sol\";\r\nimport \"./SafeMath.sol\";\r\nimport \"./Ownable.sol\";\r\n\r\ncontract Coin is IERC20, Ownable {\r\n    using SafeMath for uint256;\r\n\r\n    string internal _name;\r\n    string internal _symbol;\r\n    uint8 internal _decimals;\r\n    uint256 internal _totalSupply;\r\n\r\n    mapping(address => uint256) internal _balances;\r\n    mapping(address => mapping(address => uint256)) internal _allowed;\r\n\r\n    event Mint(address indexed minter, address indexed account, uint256 amount);\r\n    event Burn(address indexed burner, address indexed account, uint256 amount);\r\n\r\n    constructor() {\r\n        _name = \"Coin\";\r\n        _symbol = \"COIN\";\r\n        _totalSupply = 3000;\r\n        _decimals = 12;\r\n    }\r\n\r\n    function name() public view returns (string memory) {\r\n        return _name;\r\n    }\r\n\r\n    function symbol() public view returns (string memory) {\r\n        return _symbol;\r\n    }\r\n\r\n    function decimals() public view returns (uint8) {\r\n        return _decimals;\r\n    }\r\n\r\n    function totalSupply() public view returns (uint256) {\r\n        return _totalSupply;\r\n    }\r\n\r\n    function transfer(address _to, uint256 _value)\r\n        public\r\n        override\r\n        returns (bool)\r\n    {\r\n        require(_to != address(0), \"ERC20 Error: Address is not valid\");\r\n        require(\r\n            _value <= _balances[msg.sender],\r\n            \"Transaction Error: insufficient balance\"\r\n        );\r\n\r\n        _balances[msg.sender] = SafeMath.sub(_balances[msg.sender], _value);\r\n        _balances[_to] = SafeMath.add(_balances[_to], _value);\r\n\r\n        emit Transfer(msg.sender, _to, _value);\r\n\r\n        return true;\r\n    }\r\n\r\n    function balanceOf(address _owner)\r\n        public\r\n        view\r\n        override\r\n        returns (uint256 balance)\r\n    {\r\n        return _balances[_owner];\r\n    }\r\n\r\n    function approve(address _spender, uint256 _value)\r\n        public\r\n        override\r\n        returns (bool)\r\n    {\r\n        _allowed[msg.sender][_spender] = _value;\r\n\r\n        emit Approval(msg.sender, _spender, _value);\r\n\r\n        return true;\r\n    }\r\n\r\n    function transferFrom(\r\n        address _from,\r\n        address _to,\r\n        uint256 _value\r\n    ) public override returns (bool) {\r\n        require(\r\n            _from != address(0),\r\n            \"ERC20 Error: 'from' address is not valid\"\r\n        );\r\n        require(_to != address(0), \"ERC20 Error: 'to' address is not valid\");\r\n        require(\r\n            _value <= _balances[_from],\r\n            \"Transaction Error: insufficient balance\"\r\n        );\r\n        require(\r\n            _value <= _allowed[_from][msg.sender],\r\n            \"Transaction Error, 'from' not allowed\"\r\n        );\r\n\r\n        _balances[_from] = SafeMath.sub(_balances[_from], _value);\r\n        _balances[_to] = SafeMath.add(_balances[_to], _value);\r\n        _allowed[_from][msg.sender] = SafeMath.sub(\r\n            _allowed[_from][msg.sender],\r\n            _value\r\n        );\r\n\r\n        emit Transfer(_from, _to, _value);\r\n\r\n        return true;\r\n    }\r\n\r\n    function allowance(address _owner, address _spender)\r\n        public\r\n        view\r\n        override\r\n        returns (uint256)\r\n    {\r\n        return _allowed[_owner][_spender];\r\n    }\r\n\r\n    function increaseApproval(address _spender, uint256 _addedValue)\r\n        public\r\n        returns (bool)\r\n    {\r\n        _allowed[msg.sender][_spender] = SafeMath.add(\r\n            _allowed[msg.sender][_spender],\r\n            _addedValue\r\n        );\r\n\r\n        emit Approval(msg.sender, _spender, _allowed[msg.sender][_spender]);\r\n\r\n        return true;\r\n    }\r\n\r\n    function decreaseApproval(address _spender, uint256 _subtractedValue)\r\n        public\r\n        returns (bool)\r\n    {\r\n        uint256 oldValue = _allowed[msg.sender][_spender];\r\n\r\n        if (_subtractedValue > oldValue) {\r\n            _allowed[msg.sender][_spender] = 0;\r\n        } else {\r\n            _allowed[msg.sender][_spender] = SafeMath.sub(\r\n                oldValue,\r\n                _subtractedValue\r\n            );\r\n        }\r\n\r\n        emit Approval(msg.sender, _spender, _allowed[msg.sender][_spender]);\r\n\r\n        return true;\r\n    }\r\n\r\n    function mintTo(address _to, uint256 _amount) public onlyOwner {\r\n        require(_to != address(0), \"ERC20: to address is not valid\");\r\n        require(_amount > 0, \"ERC20: amount is not valid\");\r\n\r\n        _totalSupply = _totalSupply.add(_amount);\r\n        _balances[_to] = _balances[_to].add(_amount);\r\n\r\n        emit Mint(msg.sender, _to, _amount);\r\n    }\r\n\r\n    function burnFrom(address _from, uint256 _amount) public onlyOwner {\r\n        require(_from != address(0), \"ERC20: from address is not valid\");\r\n        require(_balances[_from] >= _amount, \"ERC20: insufficient balance\");\r\n\r\n        _balances[_from] = _balances[_from].sub(_amount);\r\n        _totalSupply = _totalSupply.sub(_amount);\r\n\r\n        emit Burn(msg.sender, _from, _amount);\r\n    }\r\n}\r\n",
  "sourcePath": "C:\\Users\\stefa\\Desktop\\blockchain\\learning-projects\\bananil-token\\contracts\\Coin.sol",
  "compiler": {
    "name": "solc",
    "version": "0.8.11+commit.d7f03943.Emscripten.clang"
  },
  "schemaVersion": "3.4.4",
  "updatedAt": "2022-01-22T03:06:04.472Z",
  "devdoc": {
    "kind": "dev",
    "methods": {},
    "version": 1
  },
  "userdoc": {
    "kind": "user",
    "methods": {},
    "version": 1
  }
}