{
  "contractName": "Ownable",
  "abi": [
    {
      "inputs": [],
      "stateMutability": "nonpayable",
      "type": "constructor"
    },
    {
      "inputs": [],
      "name": "owner",
      "outputs": [
        {
          "internalType": "address",
          "name": "",
          "type": "address"
        }
      ],
      "stateMutability": "view",
      "type": "function"
    },
    {
      "inputs": [],
      "name": "isOwner",
      "outputs": [
        {
          "internalType": "bool",
          "name": "",
          "type": "bool"
        }
      ],
      "stateMutability": "view",
      "type": "function"
    }
  ],
  "bytecode": "0x608060405234801561001057600080fd5b50336000806101000a81548173ffffffffffffffffffffffffffffffffffffffff021916908373ffffffffffffffffffffffffffffffffffffffff1602179055506101bf806100606000396000f3fe608060405234801561001057600080fd5b50600436106100365760003560e01c80638da5cb5b1461003b5780638f32d59b14610059575b600080fd5b610043610077565b6040516100509190610138565b60405180910390f35b6100616100a0565b60405161006e919061016e565b60405180910390f35b60008060009054906101000a900473ffffffffffffffffffffffffffffffffffffffff16905090565b60008060009054906101000a900473ffffffffffffffffffffffffffffffffffffffff1673ffffffffffffffffffffffffffffffffffffffff163373ffffffffffffffffffffffffffffffffffffffff1614905090565b600073ffffffffffffffffffffffffffffffffffffffff82169050919050565b6000610122826100f7565b9050919050565b61013281610117565b82525050565b600060208201905061014d6000830184610129565b92915050565b60008115159050919050565b61016881610153565b82525050565b6000602082019050610183600083018461015f565b9291505056fea2646970667358221220695d40f9f2f50307760610f871dfb44dd9103a92b0ae09b310d5c33e6da7e91064736f6c634300080b0033",
  "immutableReferences": {},
  "source": "//SPDX-License-Identifier: MIT\r\npragma solidity ^0.8.9;\r\n\r\ncontract Ownable {\r\n    address private _owner;\r\n\r\n    constructor() {\r\n        _owner = msg.sender;\r\n    }\r\n\r\n    modifier onlyOwner() {\r\n        require(isOwner(), \"Ownable: caller is not the owner\");\r\n        _;\r\n    }\r\n\r\n    function owner() public view returns (address) {\r\n        return _owner;\r\n    }\r\n\r\n    function isOwner() public view returns (bool) {\r\n        return msg.sender == _owner;\r\n    }\r\n}\r\n",
  "sourcePath": "C:\\Users\\stefa\\Desktop\\blockchain\\learning-projects\\bananil-token\\contracts\\Ownable.sol",
  "compiler": {
    "name": "solc",
    "version": "0.8.11+commit.d7f03943.Emscripten.clang"
  },
  "schemaVersion": "3.4.4",
  "updatedAt": "2022-01-22T03:06:04.500Z",
  "devdoc": {
    "kind": "dev",
    "methods": {},
    "version": 1
  },
  "userdoc": {
    "kind": "user",
    "methods": {},
    "version": 1
  }
}